{
  "_format": "hh-sol-artifact-1",
  "contractName": "LandRegistry",
  "sourceName": "contracts/LandRegistry.sol",
  "abi": [
    {
      "inputs": [],
      "stateMutability": "nonpayable",
      "type": "constructor"
    },
    {
      "anonymous": false,
      "inputs": [
        {
          "indexed": true,
          "internalType": "uint256",
          "name": "propertyId",
          "type": "uint256"
        },
        {
          "indexed": true,
          "internalType": "address",
          "name": "from",
          "type": "address"
        },
        {
          "indexed": true,
          "internalType": "address",
          "name": "to",
          "type": "address"
        }
      ],
      "name": "OwnershipTransferred",
      "type": "event"
    },
    {
      "anonymous": false,
      "inputs": [
        {
          "indexed": true,
          "internalType": "uint256",
          "name": "propertyId",
          "type": "uint256"
        },
        {
          "indexed": true,
          "internalType": "address",
          "name": "owner",
          "type": "address"
        },
        {
          "indexed": false,
          "internalType": "string",
          "name": "location",
          "type": "string"
        }
      ],
      "name": "PropertyRegistered",
      "type": "event"
    },
    {
      "anonymous": false,
      "inputs": [
        {
          "indexed": true,
          "internalType": "uint256",
          "name": "transactionId",
          "type": "uint256"
        },
        {
          "indexed": true,
          "internalType": "uint256",
          "name": "propertyId",
          "type": "uint256"
        }
      ],
      "name": "TransactionApproved",
      "type": "event"
    },
    {
      "anonymous": false,
      "inputs": [
        {
          "indexed": true,
          "internalType": "uint256",
          "name": "transactionId",
          "type": "uint256"
        },
        {
          "indexed": true,
          "internalType": "uint256",
          "name": "propertyId",
          "type": "uint256"
        },
        {
          "indexed": true,
          "internalType": "address",
          "name": "from",
          "type": "address"
        },
        {
          "indexed": false,
          "internalType": "address",
          "name": "to",
          "type": "address"
        }
      ],
      "name": "TransactionInitiated",
      "type": "event"
    },
    {
      "inputs": [
        {
          "internalType": "address",
          "name": "_admin",
          "type": "address"
        }
      ],
      "name": "addAdmin",
      "outputs": [],
      "stateMutability": "nonpayable",
      "type": "function"
    },
    {
      "inputs": [
        {
          "internalType": "address",
          "name": "",
          "type": "address"
        }
      ],
      "name": "admins",
      "outputs": [
        {
          "internalType": "bool",
          "name": "",
          "type": "bool"
        }
      ],
      "stateMutability": "view",
      "type": "function"
    },
    {
      "inputs": [
        {
          "internalType": "uint256",
          "name": "_propertyId",
          "type": "uint256"
        },
        {
          "internalType": "uint256",
          "name": "_transactionIndex",
          "type": "uint256"
        },
        {
          "internalType": "string",
          "name": "_certificateHash",
          "type": "string"
        }
      ],
      "name": "approveTransaction",
      "outputs": [],
      "stateMutability": "nonpayable",
      "type": "function"
    },
    {
      "inputs": [
        {
          "internalType": "address",
          "name": "_owner",
          "type": "address"
        }
      ],
      "name": "getOwnerProperties",
      "outputs": [
        {
          "internalType": "uint256[]",
          "name": "",
          "type": "uint256[]"
        }
      ],
      "stateMutability": "view",
      "type": "function"
    },
    {
      "inputs": [
        {
          "internalType": "uint256",
          "name": "_propertyId",
          "type": "uint256"
        }
      ],
      "name": "getProperty",
      "outputs": [
        {
          "components": [
            {
              "internalType": "uint256",
              "name": "id",
              "type": "uint256"
            },
            {
              "internalType": "string",
              "name": "ipfsHash",
              "type": "string"
            },
            {
              "internalType": "address",
              "name": "owner",
              "type": "address"
            },
            {
              "internalType": "string",
              "name": "location",
              "type": "string"
            },
            {
              "internalType": "uint256",
              "name": "size",
              "type": "uint256"
            },
            {
              "internalType": "uint256",
              "name": "valuation",
              "type": "uint256"
            },
            {
              "internalType": "enum LandRegistry.PropertyStatus",
              "name": "status",
              "type": "uint8"
            },
            {
              "internalType": "uint256",
              "name": "registrationDate",
              "type": "uint256"
            },
            {
              "internalType": "bool",
              "name": "isVerified",
              "type": "bool"
            }
          ],
          "internalType": "struct LandRegistry.Property",
          "name": "",
          "type": "tuple"
        }
      ],
      "stateMutability": "view",
      "type": "function"
    },
    {
      "inputs": [
        {
          "internalType": "uint256",
          "name": "_propertyId",
          "type": "uint256"
        }
      ],
      "name": "getPropertyTransactions",
      "outputs": [
        {
          "components": [
            {
              "internalType": "uint256",
              "name": "propertyId",
              "type": "uint256"
            },
            {
              "internalType": "address",
              "name": "from",
              "type": "address"
            },
            {
              "internalType": "address",
              "name": "to",
              "type": "address"
            },
            {
              "internalType": "enum LandRegistry.TransactionType",
              "name": "transactionType",
              "type": "uint8"
            },
            {
              "internalType": "uint256",
              "name": "amount",
              "type": "uint256"
            },
            {
              "internalType": "uint256",
              "name": "timestamp",
              "type": "uint256"
            },
            {
              "internalType": "bool",
              "name": "isApproved",
              "type": "bool"
            },
            {
              "internalType": "string",
              "name": "certificateHash",
              "type": "string"
            }
          ],
          "internalType": "struct LandRegistry.Transaction[]",
          "name": "",
          "type": "tuple[]"
        }
      ],
      "stateMutability": "view",
      "type": "function"
    },
    {
      "inputs": [
        {
          "internalType": "uint256",
          "name": "_propertyId",
          "type": "uint256"
        },
        {
          "internalType": "address",
          "name": "_to",
          "type": "address"
        },
        {
          "internalType": "enum LandRegistry.TransactionType",
          "name": "_type",
          "type": "uint8"
        },
        {
          "internalType": "uint256",
          "name": "_amount",
          "type": "uint256"
        }
      ],
      "name": "initiateTransaction",
      "outputs": [
        {
          "internalType": "uint256",
          "name": "",
          "type": "uint256"
        }
      ],
      "stateMutability": "nonpayable",
      "type": "function"
    },
    {
      "inputs": [],
      "name": "owner",
      "outputs": [
        {
          "internalType": "address",
          "name": "",
          "type": "address"
        }
      ],
      "stateMutability": "view",
      "type": "function"
    },
    {
      "inputs": [
        {
          "internalType": "address",
          "name": "",
          "type": "address"
        },
        {
          "internalType": "uint256",
          "name": "",
          "type": "uint256"
        }
      ],
      "name": "ownerProperties",
      "outputs": [
        {
          "internalType": "uint256",
          "name": "",
          "type": "uint256"
        }
      ],
      "stateMutability": "view",
      "type": "function"
    },
    {
      "inputs": [
        {
          "internalType": "uint256",
          "name": "",
          "type": "uint256"
        }
      ],
      "name": "properties",
      "outputs": [
        {
          "internalType": "uint256",
          "name": "id",
          "type": "uint256"
        },
        {
          "internalType": "string",
          "name": "ipfsHash",
          "type": "string"
        },
        {
          "internalType": "address",
          "name": "owner",
          "type": "address"
        },
        {
          "internalType": "string",
          "name": "location",
          "type": "string"
        },
        {
          "internalType": "uint256",
          "name": "size",
          "type": "uint256"
        },
        {
          "internalType": "uint256",
          "name": "valuation",
          "type": "uint256"
        },
        {
          "internalType": "enum LandRegistry.PropertyStatus",
          "name": "status",
          "type": "uint8"
        },
        {
          "internalType": "uint256",
          "name": "registrationDate",
          "type": "uint256"
        },
        {
          "internalType": "bool",
          "name": "isVerified",
          "type": "bool"
        }
      ],
      "stateMutability": "view",
      "type": "function"
    },
    {
      "inputs": [],
      "name": "propertyCounter",
      "outputs": [
        {
          "internalType": "uint256",
          "name": "",
          "type": "uint256"
        }
      ],
      "stateMutability": "view",
      "type": "function"
    },
    {
      "inputs": [
        {
          "internalType": "uint256",
          "name": "",
          "type": "uint256"
        },
        {
          "internalType": "uint256",
          "name": "",
          "type": "uint256"
        }
      ],
      "name": "propertyTransactions",
      "outputs": [
        {
          "internalType": "uint256",
          "name": "propertyId",
          "type": "uint256"
        },
        {
          "internalType": "address",
          "name": "from",
          "type": "address"
        },
        {
          "internalType": "address",
          "name": "to",
          "type": "address"
        },
        {
          "internalType": "enum LandRegistry.TransactionType",
          "name": "transactionType",
          "type": "uint8"
        },
        {
          "internalType": "uint256",
          "name": "amount",
          "type": "uint256"
        },
        {
          "internalType": "uint256",
          "name": "timestamp",
          "type": "uint256"
        },
        {
          "internalType": "bool",
          "name": "isApproved",
          "type": "bool"
        },
        {
          "internalType": "string",
          "name": "certificateHash",
          "type": "string"
        }
      ],
      "stateMutability": "view",
      "type": "function"
    },
    {
      "inputs": [
        {
          "internalType": "address",
          "name": "_owner",
          "type": "address"
        },
        {
          "internalType": "string",
          "name": "_ipfsHash",
          "type": "string"
        },
        {
          "internalType": "string",
          "name": "_location",
          "type": "string"
        },
        {
          "internalType": "uint256",
          "name": "_size",
          "type": "uint256"
        },
        {
          "internalType": "uint256",
          "name": "_valuation",
          "type": "uint256"
        }
      ],
      "name": "registerProperty",
      "outputs": [
        {
          "internalType": "uint256",
          "name": "",
          "type": "uint256"
        }
      ],
      "stateMutability": "nonpayable",
      "type": "function"
    },
    {
      "inputs": [
        {
          "internalType": "address",
          "name": "_admin",
          "type": "address"
        }
      ],
      "name": "removeAdmin",
      "outputs": [],
      "stateMutability": "nonpayable",
      "type": "function"
    },
    {
      "inputs": [],
      "name": "transactionCounter",
      "outputs": [
        {
          "internalType": "uint256",
          "name": "",
          "type": "uint256"
        }
      ],
      "stateMutability": "view",
      "type": "function"
    },
    {
      "inputs": [
        {
          "internalType": "uint256",
          "name": "_propertyId",
          "type": "uint256"
        },
        {
          "internalType": "enum LandRegistry.PropertyStatus",
          "name": "_status",
          "type": "uint8"
        }
      ],
      "name": "updatePropertyStatus",
      "outputs": [],
      "stateMutability": "nonpayable",
      "type": "function"
    }
  ],
  "bytecode": "0x608060405234801561001057600080fd5b50600680546001600160a01b031916339081179091556000908152600360205260409020805460ff19166001179055611cdf8061004e6000396000f3fe608060405234801561001057600080fd5b50600436106101005760003560e01c80638da5cb5b11610097578063d090e47e11610066578063d090e47e14610253578063d56572961461025c578063dfe4c26114610283578063f7b108081461029657600080fd5b80638da5cb5b146101d55780638f48bd5b14610200578063cb64489714610213578063ccff11b61461023357600080fd5b806332665ffb116100d357806332665ffb1461015c578063429b62e51461017c578063564c0aec146101af57806370480275146101c257600080fd5b806303bc4f851461010557806314e887e81461012b5780631785f53c1461013457806330a2dde214610149575b600080fd5b610118610113366004611482565b6102be565b6040519081526020015b60405180910390f35b61011860055481565b6101476101423660046114cc565b61051a565b005b610118610157366004611591565b610565565b61016f61016a366004611617565b61087a565b60405161012291906116a0565b61019f61018a3660046114cc565b60036020526000908152604090205460ff1681565b6040519015158152602001610122565b6101476101bd36600461174d565b610a67565b6101476101d03660046114cc565b610b34565b6006546101e8906001600160a01b031681565b6040516001600160a01b039091168152602001610122565b61011861020e366004611781565b610b82565b6102266102213660046114cc565b610bb3565b60405161012291906117ab565b610246610241366004611617565b610c1f565b60405161012291906117ff565b61011860045481565b61026f61026a3660046118cc565b610dc4565b6040516101229897969594939291906118ee565b61014761029136600461194f565b610ec9565b6102a96102a4366004611617565b6111bf565b6040516101229998979695949392919061199f565b60006004548511156102eb5760405162461bcd60e51b81526004016102e290611a15565b60405180910390fd5b6000858152602081905260409020600201546001600160a01b031633146103695760405162461bcd60e51b815260206004820152602c60248201527f4f6e6c792070726f7065727479206f776e65722063616e20696e69746961746560448201526b103a3930b739b0b1ba34b7b760a11b60648201526084016102e2565b6005805490600061037983611a62565b91905055506000604051806101000160405280878152602001336001600160a01b03168152602001866001600160a01b031681526020018560038111156103c2576103c2611676565b815260208082018690524260408084019190915260006060808501829052825180850184528281526080909501949094528a81526001808452828220805480830182559083529184902086516007909302019182559285015192810180546001600160a01b03199081166001600160a01b03958616179091559185015160028201805493841691909416908117845593850151949550859490939092916001600160a81b03191617600160a01b83600381111561048157610481611676565b02179055506080820151600382015560a0820151600482015560c082015160058201805460ff191691151591909117905560e082015160068201906104c69082611b04565b50506005546040516001600160a01b03881681523392508891907f5ccc6b1a5288209be01c2d184643fc87c43e9c361c39684ee4cb7f2e8878135f9060200160405180910390a45050600554949350505050565b6006546001600160a01b031633146105445760405162461bcd60e51b81526004016102e290611bc4565b6001600160a01b03166000908152600360205260409020805460ff19169055565b3360009081526003602052604081205460ff168061058d57506006546001600160a01b031633145b6105a95760405162461bcd60e51b81526004016102e290611c0f565b600480549060006105b983611a62565b91905055506040518061012001604052806004548152602001868152602001876001600160a01b031681526020018581526020018481526020018381526020016000600481111561060c5761060c611676565b81524260208083019190915260016040928301819052600454600090815280835292909220835181559083015190918201906106489082611b04565b5060408201516002820180546001600160a01b0319166001600160a01b03909216919091179055606082015160038201906106839082611b04565b506080820151816004015560a0820151816005015560c08201518160060160006101000a81548160ff021916908360048111156106c2576106c2611676565b021790555060e082810151600783810191909155610100938401516008909301805493151560ff19909416939093179092556001600160a01b03898116600081815260026020818152604080842060048054825460018181018555938852858820015582519a8b01835254808b528a84018681528b840197885260608c0187815260808d018f90524260a08e015260c08d01849052845180870186528881529a8d019a909a529086528184529185208054808301825590865292909420895192909802909701908155955191860180549285166001600160a01b031993841617905591519185018054929093169082168117835592518594939092916001600160a81b03191617600160a01b8360038111156107e0576107e0611676565b02179055506080820151600382015560a0820151600482015560c082015160058201805460ff191691151591909117905560e082015160068201906108259082611b04565b505050866001600160a01b03166004547f0f5ddfd7ee384d3acc46aab5b9807217e71933f0c3db67ffbf556452423695f9876040516108649190611c51565b60405180910390a3505060045495945050505050565b610882611400565b6004548211156108a45760405162461bcd60e51b81526004016102e290611a15565b60008281526020818152604091829020825161012081019093528054835260018101805491928401916108d690611a7b565b80601f016020809104026020016040519081016040528092919081815260200182805461090290611a7b565b801561094f5780601f106109245761010080835404028352916020019161094f565b820191906000526020600020905b81548152906001019060200180831161093257829003601f168201915b505050918352505060028201546001600160a01b0316602082015260038201805460409092019161097f90611a7b565b80601f01602080910402602001604051908101604052809291908181526020018280546109ab90611a7b565b80156109f85780601f106109cd576101008083540402835291602001916109f8565b820191906000526020600020905b8154815290600101906020018083116109db57829003601f168201915b5050509183525050600482810154602083015260058301546040830152600683015460609092019160ff1690811115610a3357610a33611676565b6004811115610a4457610a44611676565b81526007820154602082015260089091015460ff16151560409091015292915050565b600454821115610a895760405162461bcd60e51b81526004016102e290611a15565b6000828152602081905260409020600201546001600160a01b0316331480610ac057503360009081526003602052604090205460ff165b610afd5760405162461bcd60e51b815260206004820152600e60248201526d139bdd08185d5d1a1bdc9a5e995960921b60448201526064016102e2565b6000828152602081905260409020600601805482919060ff19166001836004811115610b2b57610b2b611676565b02179055505050565b6006546001600160a01b03163314610b5e5760405162461bcd60e51b81526004016102e290611bc4565b6001600160a01b03166000908152600360205260409020805460ff19166001179055565b60026020528160005260406000208181548110610b9e57600080fd5b90600052602060002001600091509150505481565b6001600160a01b038116600090815260026020908152604091829020805483518184028101840190945280845260609392830182828015610c1357602002820191906000526020600020905b815481526020019060010190808311610bff575b50505050509050919050565b6060600454821115610c435760405162461bcd60e51b81526004016102e290611a15565b600082815260016020908152604080832080548251818502810185019093528083529193909284015b82821015610db95760008481526020908190206040805161010081018252600786029092018054835260018101546001600160a01b039081169484019490945260028101549384169183019190915290916060830190600160a01b900460ff166003811115610cdd57610cdd611676565b6003811115610cee57610cee611676565b81526003820154602082015260048201546040820152600582015460ff1615156060820152600682018054608090920191610d2890611a7b565b80601f0160208091040260200160405190810160405280929190818152602001828054610d5490611a7b565b8015610da15780601f10610d7657610100808354040283529160200191610da1565b820191906000526020600020905b815481529060010190602001808311610d8457829003601f168201915b50505050508152505081526020019060010190610c6c565b505050509050919050565b60016020528160005260406000208181548110610de057600080fd5b600091825260209091206007909102018054600182015460028301546003840154600485015460058601546006870180549699506001600160a01b03958616985094841696600160a01b90940460ff9081169693959294911692909190610e4690611a7b565b80601f0160208091040260200160405190810160405280929190818152602001828054610e7290611a7b565b8015610ebf5780601f10610e9457610100808354040283529160200191610ebf565b820191906000526020600020905b815481529060010190602001808311610ea257829003601f168201915b5050505050905088565b3360009081526003602052604090205460ff1680610ef157506006546001600160a01b031633145b610f0d5760405162461bcd60e51b81526004016102e290611c0f565b600454831115610f2f5760405162461bcd60e51b81526004016102e290611a15565b6000838152600160205260409020548210610f8c5760405162461bcd60e51b815260206004820152601a60248201527f5472616e73616374696f6e20646f6573206e6f7420657869737400000000000060448201526064016102e2565b6000838152600160205260408120805484908110610fac57610fac611c64565b60009182526020909120600790910201600581015490915060ff16156110145760405162461bcd60e51b815260206004820152601c60248201527f5472616e73616374696f6e20616c726561647920617070726f7665640000000060448201526064016102e2565b60058101805460ff19166001179055600681016110318382611b04565b5060016002820154600160a01b900460ff16600381111561105457611054611676565b148061107f575060036002820154600160a01b900460ff16600381111561107d5761107d611676565b145b15611149576000848152602081905260409020600201546110a9906001600160a01b03168561132c565b600281810180546001600160a01b03908116600090815260208481526040808320805460018082018355918552838520018b905585548b85529284905281842096870180546001600160a01b031916938616939093179092556006909501805460ff191690559254928501549351928216939091169187917f16b85f49bf01212961345d3016c9a531894accf62eb7680f2045d79185cc0ec091a461118c565b600280820154600160a01b900460ff16600381111561116a5761116a611676565b0361118c576000848152602081905260409020600601805460ff191660041790555b604051849084907fd6a7c76a45e03d9556990632f59530fb53e0f887a2a219d138d8a9a80cf7d3a990600090a350505050565b600060208190529081526040902080546001820180549192916111e190611a7b565b80601f016020809104026020016040519081016040528092919081815260200182805461120d90611a7b565b801561125a5780601f1061122f5761010080835404028352916020019161125a565b820191906000526020600020905b81548152906001019060200180831161123d57829003601f168201915b505050600284015460038501805494956001600160a01b0390921694919350915061128490611a7b565b80601f01602080910402602001604051908101604052809291908181526020018280546112b090611a7b565b80156112fd5780601f106112d2576101008083540402835291602001916112fd565b820191906000526020600020905b8154815290600101906020018083116112e057829003601f168201915b50505060048401546005850154600686015460078701546008909701549596929591945060ff90811693501689565b6001600160a01b0382166000908152600260205260408120905b81548110156113fa578282828154811061136257611362611c64565b9060005260206000200154036113e8578154829061138290600190611c7a565b8154811061139257611392611c64565b90600052602060002001548282815481106113af576113af611c64565b9060005260206000200181905550818054806113cd576113cd611c93565b600190038181906000526020600020016000905590556113fa565b806113f281611a62565b915050611346565b50505050565b604051806101200160405280600081526020016060815260200160006001600160a01b031681526020016060815260200160008152602001600081526020016000600481111561145257611452611676565b815260006020820181905260409091015290565b80356001600160a01b038116811461147d57600080fd5b919050565b6000806000806080858703121561149857600080fd5b843593506114a860208601611466565b92506040850135600481106114bc57600080fd5b9396929550929360600135925050565b6000602082840312156114de57600080fd5b6114e782611466565b9392505050565b634e487b7160e01b600052604160045260246000fd5b600082601f83011261151557600080fd5b813567ffffffffffffffff80821115611530576115306114ee565b604051601f8301601f19908116603f01168101908282118183101715611558576115586114ee565b8160405283815286602085880101111561157157600080fd5b836020870160208301376000602085830101528094505050505092915050565b600080600080600060a086880312156115a957600080fd5b6115b286611466565b9450602086013567ffffffffffffffff808211156115cf57600080fd5b6115db89838a01611504565b955060408801359150808211156115f157600080fd5b506115fe88828901611504565b9598949750949560608101359550608001359392505050565b60006020828403121561162957600080fd5b5035919050565b6000815180845260005b818110156116565760208185018101518683018201520161163a565b506000602082860101526020601f19601f83011685010191505092915050565b634e487b7160e01b600052602160045260246000fd5b6005811061169c5761169c611676565b9052565b6020815281516020820152600060208301516101208060408501526116c9610140850183611630565b915060408501516116e560608601826001600160a01b03169052565b506060850151848303601f190160808601526117018382611630565b925050608085015160a085015260a085015160c085015260c085015161172a60e086018261168c565b5060e0850151610100858101919091529094015115159390920192909252919050565b6000806040838503121561176057600080fd5b8235915060208301356005811061177657600080fd5b809150509250929050565b6000806040838503121561179457600080fd5b61179d83611466565b946020939093013593505050565b6020808252825182820181905260009190848201906040850190845b818110156117e3578351835292840192918401916001016117c7565b50909695505050505050565b6004811061169c5761169c611676565b60006020808301818452808551808352604092508286019150828160051b87010184880160005b838110156118be57888303603f19018552815180518452878101516001600160a01b03908116898601528782015116878501526060808201516101009190611870828801826117ef565b50506080828101519086015260a0808301519086015260c08083015115159086015260e0918201519185018190526118aa81860183611630565b968901969450505090860190600101611826565b509098975050505050505050565b600080604083850312156118df57600080fd5b50508035926020909101359150565b8881526001600160a01b03888116602083015287166040820152600061010061191a60608401896117ef565b8660808401528560a084015284151560c08401528060e084015261194081840185611630565b9b9a5050505050505050505050565b60008060006060848603121561196457600080fd5b8335925060208401359150604084013567ffffffffffffffff81111561198957600080fd5b61199586828701611504565b9150509250925092565b60006101208b83528060208401526119b98184018c611630565b6001600160a01b038b166040850152838103606085015290506119dc818a611630565b9150508660808301528560a08301526119f860c083018661168c565b8360e08301528215156101008301529a9950505050505050505050565b60208082526017908201527f50726f706572747920646f6573206e6f74206578697374000000000000000000604082015260600190565b634e487b7160e01b600052601160045260246000fd5b600060018201611a7457611a74611a4c565b5060010190565b600181811c90821680611a8f57607f821691505b602082108103611aaf57634e487b7160e01b600052602260045260246000fd5b50919050565b601f821115611aff57600081815260208120601f850160051c81016020861015611adc5750805b601f850160051c820191505b81811015611afb57828155600101611ae8565b5050505b505050565b815167ffffffffffffffff811115611b1e57611b1e6114ee565b611b3281611b2c8454611a7b565b84611ab5565b602080601f831160018114611b675760008415611b4f5750858301515b600019600386901b1c1916600185901b178555611afb565b600085815260208120601f198616915b82811015611b9657888601518255948401946001909101908401611b77565b5085821015611bb45787850151600019600388901b60f8161c191681555b5050505050600190811b01905550565b6020808252602b908201527f4f6e6c7920636f6e7472616374206f776e65722063616e20706572666f726d2060408201526a3a3434b99030b1ba34b7b760a91b606082015260800190565b60208082526022908201527f4f6e6c792061646d696e2063616e20706572666f726d2074686973206163746960408201526137b760f11b606082015260800190565b6020815260006114e76020830184611630565b634e487b7160e01b600052603260045260246000fd5b81810381811115611c8d57611c8d611a4c565b92915050565b634e487b7160e01b600052603160045260246000fdfea2646970667358221220035d86293c18ae4fbdacd07bb52d0f4fe5a3a5ddca7bd2321e9851042e8b782b64736f6c63430008130033",
  "linkReferences": {},
  "deployedLinkReferences": {}
}